:020000040800F2
:10000000B00C0020C9000008F91A0008950A000881
:1000100000000000000000000000000000000000E0
:10002000000000000000000000000000432E000857
:100030000000000000000000D52B0008612F000820
:10004000DB00000800000000DB000008DB00000807
:10005000DB00000821080008DB000008DB000008C6
:1000600000000000DB000008DB000008DB000008E7
:10007000DB000008DB000008DB00000800000000D7
:10008000DB0000089130000800000000DB000008E1
:10009000DB000008DB000008DB000008DB000008D4
:1000A000DB000008DB000008DB000008E933000883
:1000B000DB0000080348854600F0FAF900480047D5
:1000C000AD360008B00C00200448804704480047C3
:1000D000FEE7FEE7FEE7FEE7FEE7FEE73530000855
:1000E000B500000830B50B4601460020202201244F
:1000F00009E00D46D5409D4205D31D469540491B5C
:100100002546954040191546521E002DF1DC30BDA4
:1001100070B500242546002801DA01244042002958
:1001200001DA01254942FFF7DDFFAC4200D0404231
:10013000002C00D0494270BDD2B201E00270401CD8
:10014000491EFBD270470022F6E710B513460A4657
:1001500004461946FFF7F0FF204610BD024670B571
:100160004A40D30FDB0740002DD04A002AD0010EB1
:10017000140E000212020919400A520A8418E501FD
:1001800004465443000A120A2E045043A41942198B
:10019000200CC543AA18120C0125AD03521C52199C
:1001A00012047F39240400D0521C104301D44000B3
:1001B000491EC2B20C06C0092018401C4008802A03
:1001C00002D003E0002070BD40084000002900DAA2
:1001D0000020184370BD0000F0B51FB488B00B9923
:1001E0000998002448400999C00F4900490809911D
:1001F000C0070B990090490049080B91099908988C
:10020000A64608431CD00B990A98084318D00998B1
:1002100001244000420D4800410D099824050003C7
:10022000000B204309900B980003000B20430B9018
:1002300050181C494018002201901446104605E051
:10024000002001460DB0F0BD032801DA034600E0AE
:1002500003239C46C11A0AAE0AE05F0008ADED5BBD
:100260004F00F75B7D430027AA187C41491C5B1EA9
:100270006145F2DD410004AB5A522104120C0A43DD
:10028000240C401C0828DFDB01980290009970467E
:1002900001910090059B049A0799069800F0B5F823
:1002A000D0E700000DFCFFFFC217C10F504010B592
:1002B0004018CA079623002100F061F810BD000025
:1002C0000EB505490291002100910A460B460191A5
:1002D00000F09BF803B000BD33040000C20F4100E2
:1002E00040020123400ADB05D207090EC0187F290E
:1002F00001DA00207047962903DC9623591AC8407A
:1003000001E096398840002AF4D04042704700004E
:100310004A0009030123090B1B051943094B10B5BA
:10032000520D9A4201DA002010BD064B34339A4236
:1003300003DC9A1A00F00AF810BD034951188840EE
:1003400010BD0000FF030000CDFBFFFF10B5202A09
:1003500004DB0846203AD040002110BD0B46D340B4
:10036000D0402024A21A91400843194610BD00290C
:1003700004DA401C490001D140084000704770B4C5
:100380000024050C05D11024000402D1002921D03D
:100390001124050E01D100020834050F01D100011E
:1003A000241D850F01D18000A41C002801DB400022
:1003B000641C002908D020252E1B0D46F540A140C5
:1003C00000D001212943084301061B1B000ADB1D45
:1003D00002D5002070BC7047DB0518188018002972
:1003E000F8DA401C4900F5D170BC40084000704765
:1003F00010B5002B08DA0024401C614192185B41C3
:100400001A4301D14008400010BDF0B51FB482B0BE
:1004100005460C0003D0084603F062F802E003F042
:100420005FF82030024600902146284600F052F83E
:10043000049B059A04460F4618431143084314D001
:10044000184610431BD0009840210A1A18460599F7
:10045000FFF77CFF05460E46009A0599049800F0C8
:1004600039F8084305D0012004E02046394607B09A
:10047000F0BD0020C11705430E432C4337430099BC
:100480000E986305401A7905E40A00220C43FD0A20
:100490000A3002D500200146E9E70105101969413B
:1004A0000C9C0D9D00196941FFF7A2FFDFE70000DA
:1004B000064C0125064E05E0E36807CC2B430C3CB7
:1004C00098471034B442F7D3FFF7F8FDCC68000822
:1004D000EC68000810B5202A04DB0146203A914060
:1004E000002010BD914020239C1A0346E34019438D
:1004F000904010BDF0B5FFB0D2B00020039007903F
:10050000C14901200870BF4C5021002002F0C6FAFA
:100510000025BE4F2614BE61FA2000F0E7FEBE6241
:10052000FA2000F0E3FE6D1CEDB2042DF3D300269B
:1005300000200090142000F0D9FE02F0C5FB002737
:10054000049002F0C1FB054604980121281A4903D2
:10055000C84202DA48002D1805E00121490388420B
:1005600001DD48002D1A0098401900900A2000F083
:10057000BDFE7F1CFFB204950A2FE2D30A2100982A
:10058000FFF7C6FD01218903884201DD401A04E01E
:10059000002802DA012189034018B20009A9885015
:1005A00002F05EFA642000F0A1FE761C36B2C72E7F
:1005B000BEDD95480021017002F052FA7D20C00096
:1005C00000F094FEC72600200090142000F08EFE5C
:1005D00002F07AFB0027049002F076FB05460498AF
:1005E0000121281A4903C84202DA48002D1805E003
:1005F00001214903884201DD48002D1A0098401965
:1006000000900A2000F072FE7F1CFFB204950A2FB2
:10061000E2D30A210098FFF77BFD0121890388427C
:1006200001DD401A04E0002802DA012189034018A4
:10063000B10009AF7A581018C20F10184010785046
:1006400002F00EFA642000F051FE761E36B2002E43
:10065000B9DA6F480021416381630D46C821681CE7
:10066000FFF740FD880009AE3758C8212846FFF73C
:1006700039FD880030586749381A884203DA012169
:100680008903401806E063494942884202DD01219E
:100690008903401A0021AB000CE009AAD258521875
:1006A000D617B60CB618B60BB603B24201D10395F5
:1006B0000791491C8142F0DB6D1CEDB2C82DCDD3F2
:1006C00000F0B0F900F0D2F8039D2846C93004903C
:1006D0006CE0C821681CFFF71BFD880009AE375885
:1006E000C8212846FFF714FD880030583E1A4948B3
:1006F000864202DA012080033618039885421AD117
:100700006803079F089013E078033146FFF700FD68
:100710000899401819210904FFF7FAFC08466421DA
:10072000FFF7F6FC81B2204600F09AF9A41C7F1C6A
:10073000B742E9DB38E0C83085421BD100276803A7
:10074000089013E078033146FFF7E2FC089940185F
:1007500019210904FFF7DCFC08466421FFF7D8FCE7
:1007600081B2204600F07CF9A41C7F1C07988742C8
:10077000E8DB19E000276803089013E078033146AE
:10078000FFF7C6FC0899401819210904FFF7C0FCBF
:1007900008466421FFF7BCFC81B2204600F060F9F6
:1007A000A41C7F1CB742E9DB04986D1C854290DBDA
:1007B00000F030F9144C607B01281DD00121A17696
:1007C0001548AA22028080234380102383800423BB
:1007D000C38003230381002343818181C18101827E
:1007E000E18BC182218C0183618C4183E2710146DE
:1007F0000E220A4802F0B0FA012020737FB052B0F6
:10080000F0BD000000800008000000200004004847
:100810000004004068C5FFFF90000020007C000835
:1008200010B50E4902204A69904316D10220486152
:1008300002460B4800690C4982430A48097805D0F2
:10084000012907D0002908D1002104E00129FBD0AB
:10085000002902D1102100F0EDFC10BD0004014080
:1008600000040048002C01401800002000B530486A
:1008700000F09EF82F4800F09BF82F4800F098F801
:100880002E4800F095F82E4800F092F82D4800F020
:100890008FF82D4800F08CF82C4800F089F82C488F
:1008A00000F086F82B4800F083F82B4800F080F821
:1008B0002A4800F07DF82A4800F07AF8294800F02C
:1008C00077F8294800F074F8284800F071F82848B3
:1008D00000F06EF8274800F06BF8274800F068F841
:1008E000264800F065F8264800F062F8254800F038
:1008F0005FF8254800F05CF8244800F059F82448D7
:1009000000F056F8234800F053F8234800F050F860
:10091000224800F04DF8224800F04AF8214800F043
:1009200047F8214800F044F8204800F041F800BDA5
:10093000008000080084000800880008008C00087F
:10094000009000080094000800980008009C00082F
:1009500000A0000800A4000800A8000800AC0008DF
:1009600000B0000800B4000800B8000800BC00088F
:1009700000C0000800C4000800C8000800CC00083F
:1009800000D0000800D4000800D8000800DC0008EF
:1009900000E0000800E4000800E8000800EC00089F
:1009A00000F0000800F4000800F8000800FC00084F
:1009B00070B50D4E0546304600F040F8002811D1C4
:1009C0000A4B18690224204318615D6118694021AF
:1009D00008431861304600F031F8012802D0196947
:1009E000A143196170BD0000FF5F000000200240BC
:1009F0000748C068C10701D001207047410701D5F1
:100A000002207047C00601D50320704700207047C0
:100A100000200240024801698022114301617047B1
:100A20000020024003480249416003494160704789
:100A30002301674500200240AB89EFCD00B5024697
:100A4000FFF7D6FF012803D0002A00D1FF2000BD08
:100A5000012002F00BFD521E1204120CF0D1F5E73A
:100A600030B505460C46FF20FFF7E8FF00280ED101
:100A7000074B18690121084318612C80FF20FFF7FC
:100A8000DDFF012803D0196949084900196130BD0B
:100A900000200240FEE70000F8B509270121FF060B
:100AA000C903384600F012FA01250026984C0028A8
:100AB0000FD0E902384600F009FA00285AD029027E
:100AC000384600F003FA002876D0E6702671667189
:100AD000F8BD0A2000F00AFC0121C903384600F0E5
:100AE000F5F90028F4D1207A0028F1D1E078002827
:100AF000EED1E570A572E079AA2807D0607A401C93
:100B0000C0B260720128E3D96672F8BDA07B0128EB
:100B10000FD0022816D003281CD0042822D0052884
:100B2000F3D1A07C401CC0B2A0740128EDD9A674FA
:100B3000F8BD607A401CC0B260720728F8D9022064
:100B40006072F8BDE07B401CC0B2E0732128F8D988
:100B5000E673F8BD207C401CC0B220740428F8D98C
:100B60002674F8BD607C401CC0B260740128F8D9BE
:100B70006674F8BD0A2000F0B9FB0121C9023846AD
:100B800000F0A4F90028F4D120790028F1D12571D2
:100B9000A57201F0FDF8A079012808D0207A401C48
:100BA000C0B220720128E4D92672F8BD04E0A67113
:100BB00026720220607239E00A2000F097FBFF21C4
:100BC0000131384600F082F90028EED16079002822
:100BD000EBD16571207A0028E7D1607A4D4F030090
:100BE00002F095FC0806090F263C56770905DCE75C
:100BF00002F028F9D9E7A5712572A57201F0C8F8AD
:100C0000D3E745480168490849000160A6700520FE
:100C100000F074FF062000F071FF657302F012F916
:100C2000052000F075FF062000F072FFA573BCE7F9
:100C300001F0AEF8A572E07C401CC0B2E07401285F
:100C40000AD00228B1D1E674A573607D2075A5761F
:100C50007880E07BB880A8E7022017E001F098F8E0
:100C6000A572E07C401CC0B2E07401280DD00228BF
:100C70009BD1E674A573A67001F05CFFA07D607047
:100C8000A576F880207C38818FE70320A0738CE75D
:100C900001F07EF8A572E07C401CC0B2E07401282F
:100CA00013D0022881D1E674A573A67001F042FF2B
:100CB000E07DAA280BD055289CD16576E675A576EF
:100CC000607E7881607CB8816FE70420DEE766761D
:100CD000F4E701F05DF8A572E07C401CC0B2E0745E
:100CE000012809D0022885D1E674A573E07D11287A
:100CF00004D0222804D004E00520C7E7257600E0D0
:100D00002676E675A576207EF881A07C38824CE7B1
:100D10000000002090000020002C014008B504498C
:100D20004A6902434A6149690140009108BD0000D7
:100D30000010024008B50449CA690243CA61C96982
:100D40000140009108BD00000010024008B50449B0
:100D50008A6902438A6189690140009108BD0000E7
:100D6000001002400249CA680243CA60704700008E
:100D7000001002400249CA688243CA6070470000FE
:100D80000010024010B50479012325490268002CA7
:100D90003DD0002A42D04479002C0FD0012C15D030
:100DA000022C16D000238279002A37D0012A18D0CD
:100DB000022A1FD0032A21D000232FE04C6894433D
:100DC0004C6002680C6814430C60ECE70C689443B8
:100DD00001E00C6814430C6002684C6814434C60DA
:100DE000E1E70268CC689443CC6000688A680243FB
:100DF0008A6013E002688C68944302E002688C68A1
:100E000014438C600068CA680243CA6006E00C683C
:100E100094430C6000684A6882434A60184610BDDB
:100E200000040140F0B500243EE001232A46A3401F
:100E30001A4038D04F680668134653435D005D1969
:100E4000AE435F433E4306604E68012E01D0022E42
:100E500005D18F6886685F43AE433E4386600F6965
:100E6000C668AE431D467D432E43C6604D68022DC5
:100E700019D1FF2A0AD84E69056A534353431A0110
:100E8000D21A954373431D4305620CE0130A1A46B8
:100E90005A435A435A4313019E1A4D69436A6A439F
:100EA000B34313434362641C0A681546E240BCD155
:100EB0004A68012A01D0022A06D1CB6841682A4635
:100EC00091435A43114341600120F0BD00698143C1
:100ED00001D0002070470120704710B503684943D6
:100EE0004C000C19A34351430B43036010BD10B5D4
:100EF000C36849434C000C19A34351430B43C360DF
:100F000010BD000010B57D21C900FFF7EBF80449C2
:100F1000401E4861002088610520086110BD000066
:100F200000E000E010B5044601F09EFE206001F0F4
:100F300081FE606001F08CFEA06010BD014610B51E
:100F4000002000290FD110490A6B9207920F012A45
:100F50000AD0022A11D0032A09D001F085FE01F03F
:100F600069FE01F075FE10BD01F07EFE10BD09683E
:100F70008907C90FFAD0054810BD096A8907C90F4A
:100F8000FAD00120C00310BD0010024000127A0008
:100F900010B5036800225B06DB0F25D10CC98C68F5
:100FA0001A434B6823431A43CB681A430B691A430D
:100FB0004B691A438B691A4303680C4C23401A434C
:100FC000026042680A4B1A40CB681B0C1A430B683C
:100FD0001A43426001238A695B0308399A4202D1AD
:100FE000898C89B201610122104610BD4000FFFFCB
:100FF000FBF0FFFF0A06930D054A10B59B189A688F
:10100000090C0F248C40A243884002439A6010BD13
:101010000000014001490860704700008000002086
:1010200070B51E490124884201D1C5142CE01C4A28
:101030001C49904204D10A69022002430A610EE071
:10104000194A904204D10A69102002430A6106E05D
:10105000164A904207D10A69801502430A610A695B
:1010600082430A6118E01249884202D101252D0409
:101070000AE01049884202D101256D0404E00E49BE
:10108000884208D10125AD042846FFF76BFE2846AB
:10109000FFF770FE00E00024204670BD002C0140E8
:1010A00000040040001002400010004000200040FA
:1010B000004001400044014000480140F0B5026892
:1010C000194B1A4C984201D0A04203D17025AA4373
:1010D0004D682A43164D174E174F98420AD0A0422A
:1010E00008D0164CA04205D0A84203D0B04201D08F
:1010F000B84204D103242402A243CC6822430260F4
:101100008A68C2620A888262984205D0A84203D0E7
:10111000B04201D0B84201D1097C0163416901228A
:10112000114341611046F0BD002C01400004004015
:1011300000400140004401400048014000200040C0
:10114000012910D0042910D0102910D0402910D026
:10115000CA1FF93A05D00122920291420BD1052112
:101160000AE0042108E0002106E0012104E0022158
:1011700002E0032100E00621064A1830525C054BCC
:101180001018DB1D5B5C0421026899408A430260F1
:10119000704700003C3E0008012910D0042910D0FF
:1011A000102910D0402910D0CA1FF93A05D00122C9
:1011B000920291420BD105210AE0042108E00021AE
:1011C00006E0012104E0022102E0032100E0062103
:1011D000064A1830525C054B1018DB1D5B5C082179
:1011E000026899400A430260704700003C3E0008D4
:1011F000034610B5002001290DD0102910D0FF3969
:10120000491E12D00F242402A14203D111461846D0
:1012100000F084FD10BD1146184600F0A5FC10BD7D
:101220001146184600F0E6FC10BD1146184600F0C5
:1012300029FD10BD026870239A430A43026070477B
:10124000FEB5044600680D460026C007C00F43D116
:10125000E9686868AA690843296911430843216855
:101260001E4A114008432060A968606803221203E7
:101270009043084360606969A06812119043084375
:10128000A0601748844203D10020FFF757FE06E014
:101290001448844220D16846FFF744FE0298002893
:1012A0001AD02968002917D00126AA69F3039A42A7
:1012B0000CD140004A088018FEF714FF81B20A489A
:1012C00008400907490F0143E16005E04A0810188A
:1012D000FEF708FF80B2E0603046FEBDF369FFFF15
:1012E0000038014000440040F0FF000008B5064906
:1012F0000A690092421C00D0401C0A69D20300D542
:10130000401E0028F9D108BD00E000E0F0B5012042
:1013100089B0C004FFF702FD01204004FFF7FEFC86
:1013200001208004FFF7FAFC0120624FC002B8627E
:101330004020B8628020B8628000B8624010B86275
:1013400001250024092000956946C00604950194F2
:10135000FFF768FD0220009009206946049501947A
:10136000C006FFF75FFD0420009009206946049540
:101370000194C006FFF756FD082000900920694639
:1013800004950194C006FFF74DFDE8030090092085
:10139000694604950194C006FFF744FDE8020090F9
:1013A0000920694604950194C006FFF73BFD280219
:1013B00000900920694604950194C006FFF732FDAC
:1013C0000F200003032603946A46049461C2694611
:1013D0003846FFF727FD680303946A46049461C208
:1013E00069463548FFF71EFDE80203946A460494F7
:1013F00061C269463846FFF715FD402003946A46EE
:10140000049461C269463846FFF70CFD80200394BE
:101410006A46049461C269463846FFF703FD6802D4
:1014200003946A46049461C269463846FFF7FAFCA1
:10143000280203946A46049461C269463846FFF75D
:10144000F1FC102003946A46049461C209206946A5
:10145000C006FFF7E7FCA9040120FFF7CBFDE90474
:101460000120FFF7C7FD002202213846FFF73FFDAC
:10147000012204213846FFF73AFD002202213846B6
:10148000FFF72BFD002204213846FFF726FD02203E
:101490000690684605774477867706A8FFF772FCC2
:1014A0000021052000F03EFB052000F027FB09B0DD
:1014B000F0BD00000004004800080048F0B501201D
:1014C00091B00003FFF742FC202002250327694664
:1014D000A1C1002430C109206946C0060594FFF768
:1014E000A1FC402609200096019503946946C00698
:1014F000029704950594FFF795FC80206946A1C1E9
:1015000030C109206946C0060594FFF78BFCFF2017
:10151000053007900F2000020890012006940A90E1
:10152000099440020D940E940B900720074C10254F
:101530000F900C9506A92046FFF72AFD6068A84386
:10154000606020683043206011B0F0BD0030014081
:1015500030B5264C8BB02046FFF762FD142106A85B
:10156000FEF7F1FD18216846FEF7EDFDE014FFF7E8
:10157000EDFB01204004FFF7D1FBA01400900220F6
:101580000321002501AA23C205900920694604957C
:10159000C006FFF747FC6846058315480890079585
:1015A000099508A8057206A92046FFF787FD21685E
:1015B0008020814321600722A1681202BF231B0201
:1015C00099431143A160A168C2010A4B194011431C
:1015D000A1606168702291436160A1688143A1604C
:1015E00020680121084320600BB030BD002C014071
:1015F000FFFF0000F8BFFFFFF0B5354C93B0204669
:10160000FFF70EFD0220FFF795FB1020009002204F
:101610000025032701260190039569460297059648
:1016200004952C48FFF7FEFB20200090022001903B
:10163000039569460297059604952648FFF7F2FB45
:1016400068460587A01510900F950EA911952046A4
:10165000FFF734FD20688027B8432060A0681E494A
:101660000840A06001212046FFF796FD602006900B
:1016700007950895099506AA01210A952046FFF7C6
:10168000B7FD01212046FFF75BFD10212046FFF743
:1016900083FD079506AA102120460895FFF7A8FDAF
:1016A00010212046FFF74CFD606870218843606080
:1016B000A068B843A060206A30432062206A1021ED
:1016C0000843206220683043206013B0F0BD000062
:1016D0000004004000040048F8BFFFFFF0B52E48AA
:1016E000012182698FB089030A43826180690024E5
:1016F00008400D90481101250226032703946A46ED
:1017000005950494C1C209206946C006FFF78AFB0B
:10171000A80203946A4605950494C1C2092069464B
:10172000C006FFF77FFB4B20400206900794089409
:1017300009940B940C940C20184C0A9006A920468E
:10174000FFF77EFDA16820158143A160A068A11468
:101750000843A0606068491088436060A068082161
:101760008843A0600E4801680A02120AA1150260AF
:1017700020680843206020682021084320602068FA
:10178000102108432060206828432060C8050549CF
:1017900008600FB0F0BD00000010024000380140AA
:1017A00018E400E000E100E010B50C46FEF7B0FCE4
:1017B00008B2002801DA001900B210BDF0B587B0F8
:1017C000142101A8FEF7BFFCBE48017801297DD194
:1017D000BD490978012979D100210170BB48BC4974
:1017E000008809882024401A01B2BA482D250180BA
:1017F000002902DB69460C7304E06A46C94315738D
:10180000491C018001883C2251430EB206807D2193
:10181000C9003046FEF77CFC024668460271084665
:101820006421FEF775FC014668464171642130462B
:10183000FEF76EFC08460A21FEF76AFC0146684680
:1018400081710A213046FEF763FC6846C171A248E7
:1018500069460068002801DB0C7201E00D7240420D
:10186000FEF72EFD9D4A9E4BFEF7B6FC00229D4BD7
:10187000FEF7B2FCFEF74CFD6421FEF733FC87B2A5
:1018800099480E460780418064213846FEF72AFCBD
:1018900002466846427208460A21FEF723FC0146CA
:1018A000684681720A213846FEF71CFC6846C17200
:1018B0000A213046FEF716FC0246684642738173E1
:1018C0008A4869460068002803DB00E0F8E00C74F1
:1018D00001E00D744042E121090148438449800B35
:1018E0001D2531264827884208D80A21FEF7FAFB31
:1018F00084B27D487F4A0480944208D96846457482
:1019000086740F21C774C9430175417529E0418070
:101910000D467D21C9002046FEF7E4FB02466846DD
:10192000427408466421FEF7DDFB01466846817477
:1019300064212046FEF7D6FB08460A21FEF7D2FBBB
:1019400001466846C1740A212046FEF7CBFB684673
:1019500001750121C94341750A212846FEF7C2FBE2
:101960006846C17301240094027B102302213020B9
:1019700000F0DAFA68460094007910233030C2B2E1
:101980000221382000F0D0FA6846009440791023F4
:101990003030C2B20221402000F0C6FA68460094FE
:1019A000807910233030C2B20221482000F0BCFA06
:1019B00068460094C07910233030C2B20221502012
:1019C00000F0B2FA68460094027A10231621302003
:1019D00000F0AAFA68460094407A10233030C2B270
:1019E0001621382000F0A0FA68460094807A10236F
:1019F0003030C2B21621402000F096FA68460094BA
:101A0000C07A10233030C2B21621482000F08CFA80
:101A100068460094407B10233030C2B21621582013
:101A200000F082FA68460094807B10233030C2B206
:101A30001621602000F078FA68460094027C10239A
:101A40002A21302000F070FA68460094407C102370
:101A50003030C2B22A21382000F066FA684600947D
:101A6000807C10233030C2B22A21402000F05CFA82
:101A700068460094C07C10233030C2B22A2148202E
:101A800000F052FA68460094007D10233030C2B254
:101A90002A21502000F048FA68460094407D102327
:101AA0003030C2B22A21582000F03EFA6846009435
:101AB000C07B10233030C2B22A21602000F034FAFB
:101AC00007B0F0BD0B000020080000202A00002015
:101AD00028000020660000205400002022FAB5F5FE
:101AE000D37F963F0000594084000020340000203E
:101AF0009F8601000F27000070470000C106C90E35
:101B000001208840014908607047000080E100E042
:101B1000C106C90E012088400149086070470000D5
:101B200000E100E08307FF22DB0E9A408907090EDF
:101B3000994000280BDA0007000F0838830808488E
:101B40009B001818C36993430B43C3617047830814
:101B500004489B001B18186890430843186070479E
:101B600000ED00E000E400E030B5026A52085200E7
:101B70000262026A436884697025A408A400AC4329
:101B80000D682C430225AA430D692A4352084D686B
:101B900052002A43134DA84208D0134DA84205D045
:101BA000124DA84202D0124DA84214D10825AA43D2
:101BB0004D69AD002A430425AA438D68AD002A4330
:101BC000FF250135AB438D692B4301256D02AB43E6
:101BD000CD696D002B4343608461C9684163026233
:101BE000012030BD002C0140004001400044014074
:101BF0000048014070B5026A1025AA430262026AD9
:101C00004368846973263602B4430E68360234434F
:101C10002026B2430E6936013243AA434D682D0196
:101C20002A43144DA84208D0134DA84205D0134DA5
:101C3000A84202D0124DA84215D18025AA434D6971
:101C4000AD012A434025AA438D68AD012A430125F1
:101C5000AD02AB438D69AD002B430125ED02AB43D3
:101C6000CD69ED002B4343608461C96881630262E2
:101C7000012070BD002C01400040014000440140A3
:101C80000048014070B5026AFF250135AA4302628F
:101C9000026A4368C4697026A408A400B4430E68AD
:101CA00034436E00B2430E6936023243AA434D6894
:101CB0002D022A43154DA84208D0154DA84205D043
:101CC000144DA84202D0144DA84217D10125ED02AF
:101CD000AA434D69AD022A430125AD02AA438D688E
:101CE000AD022A4301252D03AB438D692D012B4302
:101CF00001256D03AB43CD696D012B434360C46186
:101D0000C968C1630262012070BD0000002C01405F
:101D100000400140004401400048014070B5026AA3
:101D200001252D03AA430262026A4468C36973262F
:101D30003602B3430E68360233436E00B2430E6977
:101D400036033243AA434D682D032A430C4DA84263
:101D500008D00C4DA84205D00B4DA84202D00B4D27
:101D6000A84205D10125AD03AC438D69AD012C43DB
:101D70004460C361C96801640262012070BD000053
:101D8000002C014000400140004401400048014057
:101D900010B50021084B0A460020C400E418401C7E
:101DA000C0B262548028F8D3491CC9B20829F3D3C1
:101DB00000F096F810BD0000AC04002010B57F289C
:101DC00014D83F2912D8CB080724E31A2140641AFB
:101DD0000121A140064CC0000019DBB2002AC25C00
:101DE000C9B201D00A4300E08A43C25410BD0000CA
:101DF000AC04002070B50125384C6D03A562642049
:101E0000FFF774FAA5610021AE2000F0F3F800217D
:101E1000D52000F0EFF80021502000F0EBF8002171
:101E2000A82000F0E7F800213F2000F0E3F80021AF
:101E3000D32000F0DFF80021084600F0DBF8002195
:101E4000402000F0D7F800218D2000F0D3F80021C9
:101E5000142000F0CFF80021202000F0CBF8002162
:101E6000022000F0C7F80021A12000F0C3F80021F3
:101E7000C02000F0BFF80021DA2000F0BBF80021FC
:101E8000122000F0B7F80021812000F0B3F8002103
:101E9000EF2000F0AFF80021D92000F0ABF80021CE
:101EA000F12000F0A7F80021DB2000F0A3F80021CA
:101EB000302000F09FF80021A42000F09BF80021C2
:101EC000A62000F097F80021AF2000F093F86420DE
:101ED000FFF70CFAFFF75CFF70BD00000008004838
:101EE00070B5104E00242046B030C0B2002100F082
:101EF00081F80021084600F07DF80021102000F054
:101F000079F80025E8008019005D012100F072F8E1
:101F10006D1CEDB2802DF5D3641CE4B2082CE2D325
:101F200070BD0000AC040020FFB5203A82B0D0B2F2
:101F30001F460C4600250191049030E004980C2FB8
:101F400009D01A4900014018465D00200090300673
:101F500005D50B9A07E00C2148431549F3E70B9888
:101F6000002812D0002221460298FFF727FF7006B2
:101F7000060E641C0198E4B2201AB84207D10298F8
:101F8000019C401CC0B2029007E00122EBE70098E0
:101F9000401CC0B200900828D9D36D1CEDB2BD42E0
:101FA000CCD3FFF79DFF06B0F0BD0000DA62000859
:101FB000665E0008F8B516460D460446012714E093
:101FC000782C02D900241035EDB23A2D03D9002423
:101FD0002546FFF7DDFE009732781023294620467C
:101FE000FFF7A2FF0834E4B2761C30780028E7D16E
:101FF000F8BD0000F0B501235B030E4A002901D0B3
:10200000936100E0936201252D0395620024AE00E8
:10201000E9009162070601D5966100E09662916140
:102020004006641C000EE4B2082CF2D39561936163
:10203000F0BD000000040048F8B5FD480178012912
:1020400071D100250570FB48007800280FD00128C9
:10205000F6D1F9A202210020FFF7ACFFFAA2162167
:102060000020FFF7A7FF2A21FBA20020E4E3FE4C9B
:102070002078002804D0012809D0FCA200210DE01E
:102080000021FAA20846FFF795FFF9A205E000211A
:10209000F7A20846FFF78EFFF4A210210020FFF7F9
:1020A00089FFF4480078AA2806D0F3A20021102066
:1020B000FFF780FFF3A27DE0F4480078012818D0F4
:1020C00010212022082602287BD0032875D0F04951
:1020D000042873D00528B3D1EE4801230478EE48D4
:1020E000EE4A002C6BD0012CAAD11478012C67D0B9
:1020F000FCE32078801E030001F009FA060416278D
:10210000384A5691E6A200211020FFF753FF102114
:10211000E6A20846FFF74EFFE7A220211020FFF7B6
:1021200049FFE8A232E07AE0E0A200211020FFF7A8
:1021300041FF1021E0A20846FFF73CFFE1A2202169
:102140001020FFF737FFE2A220E0DBA200211020E1
:10215000FFF730FF1021DBA20846FFF72BFFDCA2C0
:1021600020211020FFF726FFDCA20FE0D5A20021DE
:102170001020FFF71FFF1021D5A20846FFF71AFF16
:10218000D6A220211020FFF715FFD7A2302152E35D
:10219000CFA200211020FFF70DFF1021CFA208468B
:1021A000FFF708FFD0A245E3CCA200211020FFF7E3
:1021B00001FFD0A210213EE303E048E3A0E3B8E32F
:1021C000C5E3CF48CF4C0778FF203B0001F09FF9D3
:1021D0002212283A4C5F718497AABDD0FAF8F7F61C
:1021E000F5F4F3F2F1F0EFEEEDECEBEAE9E8E7E617
:1021F000E5E4E327C4A200211020FFF7DBFE102155
:10220000C3A20846FFF7D6FEC2A220211020FFF786
:10221000D1FEC1A230211020FFF7CCFE2570F8BD01
:102220002670BBA200211020FFF7C4FE1021B9A226
:102230000846FFF7BFFEB8A220211020FFF7BAFE24
:10224000B6A2A3E72170B3A200211020FFF7B2FECF
:102250001021B1A20846FFF7ADFEB0A22021102048
:10226000FFF7A8FEAEA291E718202070AAA20021D5
:102270001020FFF79FFE1021A8A20846FFF79AFE44
:10228000A7A220211020FFF795FEA6A27EE72270CC
:10229000A2A200211020FFF78DFE1021A0A2084667
:1022A000FFF788FE9FA220211020FFF783FE9EA249
:1022B0006CE7282020709AA200211020FFF77AFEF8
:1022C000102198A20846FFF775FE97A22021102042
:1022D000FFF770FE95A259E73020207091A20021EF
:1022E0001020FFF767FE10218FA20846FFF762FE5D
:1022F0008EA220211020FFF75DFE8DA246E7382038
:10230000207089A200211020FFF754FE102187A21F
:102310000846FFF74FFE86A220211020FFF74AFE55
:1023200084A233E74020207080A200211020FFF714
:1023300041FE10217EA20846FFF73CFE7DA220212F
:102340001020FFF737FE7DA220E74820207078A2FA
:1023500000211020FFF72EFE102176A20846FFF77D
:1023600029FE76A220211020FFF724FE75A20DE79A
:10237000502020706FA200211020FFF71BFE1021BB
:102380006EA20846FFF716FE6EA220211020FFF76E
:1023900011FE6EA2FAE652E240E22CE218E204E2FA
:1023A000F0E1DCE1C8E1B4E1A0E18CE178E164E1D5
:1023B00050E13CE128E114E100E1EBE0D6E027E068
:1023C00013E0FFE7582020705CA200211020FFF7E7
:1023D000F1FD10215BA20846FFF7ECFD5BA2202176
:1023E0001020FFF7E7FD5BA2D0E66020207055A229
:1023F00000211020FFF7DEFD102154A20846FFF750
:10240000D9FD54A220211020FFF7D4FD53A2BDE630
:10241000682020704DA200211020FFF7CBFD102175
:102420004CA20846FFF7C6FD20214CA2102099E0DF
:102430000A0000200800002053696D703A20203007
:102440003030302052504D00204572723A202030FA
:1024500030302E3030200000204465673A20203094
:102460003030302E30000000090000202D3E0000EA
:10247000202000000700002043616C6962726174D3
:10248000696F6E0045786974000000000E0000203E
:1024900017000020120000206D0000206C000020BA
:1024A0002043616C6962726174650000204D6F7435
:1024B0006F72206D41200000204D6963726F73744C
:1024C0006570000020456E61626C6550696E0000A9
:1024D0002044697250696E202020000020457869F0
:1024E00074202020202000002020202020202020D8
:1024F000202000002020202020202020202020003C
:102500000F000020150000203020202000000000D7
:102510003130300032303000333030003430300071
:102520003530300036303000373030003830300051
:10253000393030003130303000000000313130307F
:102540000000000031323030000000003133303004
:1025500000000000313430300000000031353030F0
:1025600000000000FFF726FDF9A20FE670202070A2
:10257000F94A00211020FFF71DFDF74A102108320B
:102580000846FFF717FDF2A220211020FFF712FDE9
:10259000F2A2FBE57820F04A2070083200211020DA
:1025A000FFF708FD1021EAA20846FFF703FDEBA2A2
:1025B00020211020FFF7FEFCEAA2E7E58020207032
:1025C000E3A200211020FFF7F5FC1021E3A208464A
:1025D000FFF7F0FCE3A220211020FFF7EBFCE3A2C1
:1025E000D4E588202070DDA200211020FFF7E2FC56
:1025F0001021DCA20846FFF7DDFCDCA22021102020
:10260000FFF7D8FCDBA2C1E590202070D5A2002105
:102610001020FFF7CFFC1021D4A20846FFF7CAFC18
:10262000D4A220211020FFF7C5FCD4A2AEE598204B
:102630002070CEA200211020FFF7BCFC1021CDA2FB
:102640000846FFF7B7FCCDA220211020FFF7B2FC0F
:10265000CCA29BE5A0202070C6A200211020FFF78D
:10266000A9FC1021C5A20846FFF7A4FCC5A22021A1
:102670001020FFF79FFCC5A288E5A8202070BFA20C
:1026800000211020FFF796FC1021BEA20846FFF79C
:1026900091FCBEA220211020FFF78CFCBDA275E5A5
:1026A000B0202070B7A200211020FFF783FC10217A
:1026B000B6A20846FFF77EFCB6A220211020FFF745
:1026C00079FCB6A262E5B8202070B0A200211020EB
:1026D000FFF770FC1021AFA20846FFF76BFCAFA21A
:1026E00020211020FFF766FCAEA24FE5C02020702D
:1026F000A8A200211020FFF75DFC1021A7A2084628
:10270000FFF758FCA7A220211020FFF753FCA7A237
:102710003CE5C8202070A1A200211020FFF74AFC50
:102720001021A0A20846FFF745FCA0A220211020FE
:10273000FFF740FC9FA229E5D020207099A200213C
:102740001020FFF737FC102198A20846FFF732FC53
:1027500098A220211020FFF72DFC98A216E5D82082
:10276000207092A200211020FFF724FC102191A2DA
:102770000846FFF71FFC91A220211020FFF71AFC4A
:1027800090A203E5E02020708AA200211020FFF72C
:1027900011FC102189A20846FFF70CFC89A2202118
:1027A0001020FFF707FC89A2F0E4E820207083A244
:1027B00000211020FFF7FEFB102182A20846FFF740
:1027C000F9FB82A220211020FFF7F4FB81A2DDE4B7
:1027D000F02020707BA200211020FFF7EBFB1021DE
:1027E0007AA20846FFF7E6FB7AA220211020FFF725
:1027F000E1FB7AA2CAE4F820207074A20021102024
:10280000FFF7D8FB102173A20846FFF7D3FB73A292
:1028100020211020FFF7CEFB72A2B7E420706DA23A
:1028200000211020FFF7C6FB10216CA20846FFF71D
:10283000C1FB6CA220211020FFF7BCFBF8BD20706B
:1028400066A200211020FFF7B5FB66A2B2E467483C
:1028500004786748230000F05AFE050517293B4A13
:102860000400EBE7027063A200211020FFF7A2FB37
:10287000102161A20846FFF79DFB60A220211020D5
:10288000FFF798FB5EA281E401705BA2002110209B
:10289000FFF790FB102159A20846FFF78BFB58A2C7
:1028A00020211020FFF786FB56A26FE4067053A28A
:1028B00000211020FFF77EFB102151A20846FFF7F0
:1028C00079FB50A220211020FFF774FB4EA25DE49B
:1028D000042101704AA200211020FFF76BFB102198
:1028E00048A20846FFF766FB47A2A3E7A8E002213B
:1028F000017044A200211020FFF75CFB42A259E4C2
:102900004248007800280BD0012897D1AA200870EF
:102910003FA200211020FFF74DFB0F4A5C3A49E42B
:10292000552008703CA200211020FFF743FB38A27D
:1029300040E40478012C03D1057013701120087055
:1029400037A200211020FFF735FB38A232E473E0F4
:102950003136303000000000542500083137303067
:1029600000000000313830300000000031393030D4
:1029700000000000323030300000000032313030D2
:1029800000000000323230300000000032333030BE
:1029900000000000323430300000000032353030AA
:1029A0000000000032363030000000003237303096
:1029B0000000000032383030000000003239303082
:1029C0000000000033303030000000003331303080
:1029D000000000003332303000000000333330306C
:1029E0000000000020202020000000001000002037
:1029F00016000020322000003400000038000000E3
:102A00003136000033320000202000001100002089
:102A100021456E61626C6500456E61626C652000E7
:102A20004869676874204357200000004869676858
:102A30007420434357000000157003702220087073
:102A4000034A00211020FFF7B5FA02A2FEE60000BB
:102A50002C2A0008202020202020202020000000F8
:102A60000C4810B502780146C96B002A01D0491CF8
:102A700000E0491EC1630846FDF716FC0649FDF754
:102A80006DFBFDF72BFC502100F008F80A20FEF743
:102A90002DFC10BD000000200AD7A34270B50C46E3
:102AA000204DFDF701FC2946FDF758FBFDF716FC0C
:102AB00001252D032946FEF777FEA910411809B21A
:102AC000A94201DD491B09B2420017484900835E53
:102AD000425E20465843C117890D0818811254439D
:102AE000E017800D00198212104B1148002905DBF8
:102AF0009963402181618021816205E049429963A7
:102B00004021816280218161FF2101314C00002A36
:102B100003DB5A638161846270BD52425A638162F1
:102B2000846170BD000048414A3E00080004004036
:102B300000040048F8B51748002404601648184FF0
:102B400004601648184E046016483C600460174D37
:102B5000348017482C8004601648046016480480AE
:102B60001648046016480460164800F0BDF8400896
:102B7000154940004018008808493860086000B2D4
:102B800030800B4928800860104908601048446272
:102B9000F8BD000040000020440000202C00002070
:102BA00030000020480000202400002026000020E3
:102BB0003400002054000020600000205C00002051
:102BC0005000002021800000008000083800002014
:102BD000002C01407047000010B5FFF7D9F808A29B
:102BE00010210020FFF7E6F909A220210020FFF7BD
:102BF000E1F90BA230210020FFF7DCF910BD000045
:102C000020202066696E69736865642120200000B9
:102C10002020506C656173652070726573732000AD
:102C20005265736574204B6579207265626F6F74AD
:102C30000000000004494968F0221140034A0909D4
:102C4000515CC84070470000001002404E5E000812
:102C500003494968034A4905490F515CC840704718
:102C6000001002405E5E000810B5064841680C2066
:102C70000140054805D0042903D0082901D100F0FE
:102C800005F810BD0010024000127A0010B50C4C7F
:102C90006168012212040B48114002D0914200D118
:102CA0004000E16A0907090F491CFDF71BFA61683A
:102CB0000F2292041140890C891C484310BD00006A
:102CC0000010024000093D0000B5024800F00CF879
:102CD000400800BD2180000000B5024800F004F863
:102CE00000BD00000180000010210922D20691627F
:102CF00011498B689B07DB0FFBD088818868C00770
:102D0000C00FFBD0C86853688020834303435360DF
:102D100088688007C00FFBD0084888818868C00792
:102D2000C00FFBD0C8684004400C1021916151686D
:102D3000802399435160704700300140FFFF00003D
:102D400030B5002305E004885D005B1C4C539BB24A
:102D5000801C9342F7D330BDF7B581B01F21019895
:102D60001546C906421801200004824252D2FDF7DE
:102D700059FE0198970A8005C60D01204002841B68
:102D8000A54200D82C460120B902C006081801222D
:102D9000520221490090FFF7D3FF00201F4907E0AE
:102DA000321853001C4AD25A8A4203D1401C80B2C6
:102DB000A042F5D3A04227D20098FDF7F9FD0020EC
:102DC00008E002994200895A82195300124A401CB5
:102DD000D15280B2A042F4D3012252020E4900988F
:102DE00000F01EF8A54213D002996000411802912C
:102DF0000199002640180190281B012485B2640225
:102E00007F1CA542BFD8BDE7224602990198E7E79B
:102E1000FDF700FEFFBD0000AC000020FFFF00003A
:102E2000F0B516460F460546002407E06000395A03
:102E30002846FDF715FE641CA4B2AD1CB442F5D3C0
:102E4000F0BD7047F8B50124E402A1202146C0017D
:102E500000F016FBFFF740FF3D4D00060CD50026A5
:102E6000AC61C820FEF742FAAC62C820FEF73EFA19
:102E7000761CF6B20A2EF3D3364E0927F079FF06F8
:102E8000AA2839D001213846FEF720F8002801D1C0
:102E9000FDF730FB707B012831D008213846FEF762
:102EA00015F8012805D104213846FEF70FF801284E
:102EB00006D008213846FEF709F8002802D007E0BE
:102EC000102015E004213846FEF700F8012806D04E
:102ED00008213846FDF7FAFF012802D007E0082054
:102EE00006E004213846FDF7F1FF002802D0022059
:102EF000707004E00420FBE7707B0128C2D002213F
:102F00003846FDF7E3FF002700280ED07777307BA7
:102F100001281CD137737773FFF75EFE6869604044
:102F20006861C820FEF7E2F9F8E7012070770A48E7
:102F3000FFF7DAFE40080949400040180088306376
:102F4000F06200B2B084F0847063B063DFE7F8BD74
:102F500000040048000000202180000000800008DC
:102F60007047000070B52F48012102688A430A4368
:102F700002600068084053D02B4C216801200143B7
:102F8000216021688907C90FFBD02168F82291438D
:102F9000802211432160616A01436162606A800797
:102FA000C00FFBD005216068C9043D221204904384
:102FB00008436060E06A00090001E06220680121C6
:102FC00009060843206020688001C00FFBD06068BC
:102FD000F0218843606060680721090288436060CF
:102FE0006168022089088900014361600C216068E2
:102FF00008400828FBD10D4D2846FDF783FF0C49FA
:1030000008690422104308612846FEF703F8206B84
:103010008008800020630021481EFEF783FD70BDFC
:10302000FEE700000020024000100240006CDC02BD
:1030300000E000E01348016801221143016041688B
:10304000114A114041600168104A11400160016855
:10305000012292049143016041683F22120491438E
:103060004160C16A09090901C162016BFF22143282
:1030700091430163416B490849004163002181602C
:1030800070470000001002400CB8FF08FFFFF6FE7A
:10309000F8B5A2480169C907C90F7AD00121C9430F
:1030A0000161A0499E4808609F480078012870D1BE
:1030B0009E489F4D00789F4E9F4FA04C012810D0F6
:1030C0009F48416A9F483160006801260B1A3846C4
:1030D00007782046F6033A040068F3427EDA1018B7
:1030E000C4E09948FFF700FE4008984940004018A6
:1030F0000188974801809248406A924B3060196875
:103100000122411AD203D14204DA39782268090433
:10311000891807E00122D203914204DD3978226840
:103120000904511A21603978226841438918894A73
:103130000024116018608648874B0022825E1C5F65
:10314000131B01246403A34202DD2B685B1E05E010
:1031500001246403E34205DA2B685B1C2B60012326
:103160007E4C01E07E4C002323702B687D489B033E
:103170009B18CC1A03607C487C4F0121C9027C4E0D
:103180000460BC4202DC7F42BC4203DA0760B161EA
:1031900001E0C2E0B162774C00210068615E8446C4
:1031A0004143C817C00E40184111734804680919FB
:1031B0001924A4020160A14202DC6442A14200DAA7
:1031C00004606E49704C0E786D4900270968E75F0E
:1031D0004E436C496D4C0978794300E041E0246826
:1031E000F7177F0E1C1BBE196143CF177F0F79188D
:1031F000F611C910711A624E654F31600026BE5F2C
:10320000674600687E4340183018C117490E0818F9
:10321000C011610000B25F4F5F4C388009B24E4E62
:1032200021803280594E4A4C3360002803DD50180B
:103230005230208007E0002805DA5226711A511A10
:1032400021804042388055490022BA5E09783846CC
:103250008A4200DD018000203978205EFFF71EFCE5
:1032600027E00126F603B34201DD801A20602068C2
:103270004F43384C3818334A2060494E1160326849
:103280004849904209D10A887D23521C92B2DB0042
:103290000A809A4204D30B8004E000220A8003E0F3
:1032A0009A4201D3502100E0A021FFF7F7FB2068EC
:1032B00030603D483D4E0188491C0BB227490380D0
:1032C0000A78012A12D13A4A1488641C148014889E
:1032D000384FBC420AD300241480374A17883780FD
:1032E0002D8815800C701E4C012222707D22120147
:1032F000934212DB9A1A0280304A01201070184A59
:103300001278002A00D108702B4800220023B25EF8
:10331000C35E9A4201D100200870F8BD0010004041
:10332000AAAA000000300040020000201D0000207A
:103330005000002040000020010000202C00002050
:10334000002C014044000020218000000080000883
:103350002400002030000020260000206A00002009
:103360006B0000203400002054000020660600009E
:103370000004004820000020580000204C5E000897
:103380005C0000204D5E0008220000203800002074
:103390001E000020600000204C00002014000020CF
:1033A0004800002062000020680000202800002063
:1033B00064000020102700002A0000200B000020DD
:1033C00003490885C8690006C00FFBD0704700009C
:1033D0000038014000B5024602E0521CFFF7F0FF42
:1033E00010780028F9D100BD30B5184AD069184BC3
:1033F00084061848017806D5144A203292885A5417
:10340000491C017030BDD469E406E40FFAD01024E1
:1034100014621D7800240122FE2D07D15D78FE2D57
:1034200004D15B18203BDB7F162B03D004700A48C5
:10343000027030BD0123094DDB062B60084B19706B
:103440000470084802700848F2E7000000380140A4
:10345000760000206E0000201C00002080E100E0CB
:103460006F00002070000020710000200A214843F6
:103470000004000C03D000BF00BF401EF8E77047F7
:1034800010B510220923DB069A620C4A9468A4073F
:10349000E40FFBD090819068C007C00FFBD0D068CC
:1034A00090688007C00FFBD091819068C007C00F63
:1034B000FBD0D0681020986110BD000000300140A2
:1034C0000FB410B503A9044B044A029800F03CF86D
:1034D00010BC08BC04B01847993600088C000020C6
:1034E0002021020C01D010211046020A01D0104602
:1034F0000839020901D01046091F820801D0104680
:10350000891E420801D0881E7047081A704730B4DF
:103510007446641E2578641CAB4200D21D46635D70
:103520005B00E31830BC184702E008C8121F08C14E
:10353000002AFAD170477047002001E001C1121F34
:10354000002AFBD170470000FFB58DB0044600256E
:1035500006E025280AD0109A0F999047641C6D1C2C
:1035600020780028F5D1284611B0F0BD00270121B0
:10357000484A009700E00743641C23780846203B34
:1035800098401042F7D120782E2817D10420074305
:103590006078641C2A280CD10E98641C02C8009123
:1035A0000E900BE000990A22514330394018641CF8
:1035B00000902078014630390929F3D92078002875
:1035C000D1D0642808D0692806D075281ED0109A5A
:1035D0000F9990476D1C5BE00A200E99019001C97C
:1035E0000E91002802DA40422D2102E0390504D56F
:1035F0002B216A461172012103E0F90704D0202132
:10360000F7E70BAE0B910DE00021FAE70A200E99C7
:10361000019001C90E91F7E70199FCF763FD303184
:10362000761E31700028F7D103A8801B203001904E
:10363000780701D5009801E00120009001998842A7
:1036400001DD401A00E000200027009006E002A8FB
:10365000109AC05D0F9990476D1C7F1C0B98874294
:10366000F5DB04E0109A30200F9990476D1C00990B
:10367000481E00900029F5DC05E03078109A761C91
:103680000F9990476D1C0199481E01900029F4DCA8
:10369000641C65E7092801000349C2B20A85CA69AA
:1036A0001206D20FFBD070470038014086B00120CF
:1036B000FDF74CFB0021481FFEF734FA0021881E5D
:1036C000FEF730FA0021481EFEF72CFAFFF74AFCFD
:1036D000FDF71CFEFEF78EFB00217FA20846FEF7D9
:1036E00069FCFDF7EBFEFDF787FF6420FDF7FEFDAB
:1036F000FEF74EFB00217CA20846FEF75BFCFDF7BF
:1037000091F97E4F38887E4CE071FDF783F9E079BE
:10371000FF25F535AA281DD07AA210213020FEF70A
:1037200049FC79A220211020FEF744FC79A2302127
:103730000020FEF73FFC2846FDF7D8FDFEF728FBEA
:10374000002179A20846FEF735FCFDF7A5F9FEF742
:1037500073FCFAE775A219210020FEF72BFC77A273
:103760002D212820FEF726FC2846FDF7BFFDFEF799
:103770000FFB74A202210020FEF71CFC75A216218B
:103780000020FEF717FC77A22A210020FEF712FC8A
:10379000022001266072A6730025A5722672E676C5
:1037A0000E2274495548FFF7CBFAFFF74BFB7148DF
:1037B000817821750179E17381796170017A2174D1
:1037C000817A6176017B6174817B2176017CA174B1
:1037D000C18AE183018B2184408B60840520FEF740
:1037E00097F90620FEF794F9FDF778FFFDF7B0FE94
:1037F0001020FDF79FFA01211120FEF793F9112007
:10380000FEF786F9684605804B2080015A4F0290EA
:10381000694601953846FDF751FC38688021884398
:103820003860F8683043F860386830433860534F88
:10383000607E012809D104213846FDF747FB0128A5
:1038400007D0E07E401CE076A570607E002803D0A3
:103850000CE000F09DF8F8E704213846FDF736FB50
:10386000002819D0E07E401CE076A570E07E01289B
:1038700015D0E07E032802D9E07E401EE07600F0FD
:103880009FF8207F002803D025773DA0FFF7A2FDF9
:10389000A07E01280DD018E000F07AF8E6E7A570C8
:1038A000E07E401CE076FFF745F925856585E672E8
:1038B000E5E7A5761B20FEF721F90E222D490F48DA
:1038C000FFF74AFA1B20FEF723F9FDF7E5F8FEF7AC
:1038D000B3FBFDF773FFABE74F6C656420496E697E
:1038E000742E2E2E4F4B0000436C6F7365204C6F6F
:1038F0006F70204D6F64656C00000000007C000854
:10390000000000204E4F540043616C696272617484
:10391000696F6E00506C656173652063616C6962EC
:1039200072617465000000002D3E0000202043619C
:103930006C6962726174696F6E20200020204F4BA9
:103940002100000053696D703A2020303030302063
:1039500052504D00204572723A20203030302E30C7
:1039600030200000204465673A2020303030302E6F
:1039700030000000900000200010004000040048CB
:103980004672616D6520457272210D0A00000000CB
:1039900070B5094DE87E0126002808D0074C206844
:1039A000B0432060FFF7C6F8206830432060AE7057
:1039B0000020E87670BD000000000020002C0140CF
:1039C000F8B5A44800220178002938D000260670F6
:1039D000A1480178A14C012500291FD006700220C2
:1039E00020709F480078C71E801E08E09D4B5B5CDE
:1039F0009A1892B2B94200D1D2B2491C21702178F2
:103A00008142F3DB9748C9B2405C904203D19648AB
:103A1000057096A000E097A0FFF7DCFC92480178C3
:103A2000002908D0002101708E4B9878052807D016
:103A300095A0FFF7CFFC01209849C0060860F8BDAB
:103A40001A7959791002964E00B208433080DF7817
:103A5000A03F1F2F73D8934E3B00FFF758FD150C66
:103A60001218202D5671F7F7F7F7F7F7F7F7F786E3
:103A7000A0AEC7DCF7008C4908800146F0828BA01D
:103A80000AE08E490880014630838DA004E0904909
:103A90000880708301468FA0FFF712FDCCE06421FF
:103AA000FCF736FBC0068F49000E08708E4AC1082D
:103AB00011707080B180BFE08C4800270770FFF75D
:103AC00039F87748C15F4020FCF722FBC1B2884833
:103AD00003220170F1803E200140864808290BD066
:103AE00002DC022904D105E0102908D0202908D0E1
:103AF000027007E0042100E00221017002E005707D
:103B000000E007700078308196E078480027077061
:103B1000FFF710F86248C15F7748AA2902D05529FB
:103B200004D006E075490F70057002E073490D700E
:103B300007707249097871810078B0817CE087E074
:103B40006F49112802D0222805D008E06D48057081
:103B50000020087003E06B4A002010700D70694867
:103B60000078F0810878308266E0AA2A01D1AA297B
:103B700003D065A0FFF72EFC5EE04B4825700021C6
:103B8000415E65A0FFF79CFC4C480021415E66A0A9
:103B9000FFF796FC4E480021415E67A07CE7AA2A09
:103BA00001D1AA2901D068A0E4E74E482570007829
:103BB000C1086420414369A06EE7AA2A01D1AA295D
:103BC00001D06BA0D6E74A482570017801200F4646
:103BD0008003FCF787FA064639464020FCF782FA54
:103BE0000146324668A0FFF76BFC25E0AA2A01D106
:103BF000AA2901D06BA0BDE7404E2570307801287E
:103C000003D131786CA0FFF75BFC3078002813D12A
:103C100031786DA040E7AA2A01D1AA2901D06EA06F
:103C2000A8E7384E25703178002902D16EA0FFF741
:103C300047FC3178012907D02078012801D1FAE624
:103C400004E06D480570F6E66CA025E76FA091E7EB
:103C500075A08FE770000020710000208800002010
:103C60006F00002076000020720000204F4B0D0AEC
:103C70000000000043524320766572696679206532
:103C800072720D0A0000000044617461204C656E80
:103C9000677468206572720D0A00000000E100E0A0
:103CA00074000020900000201E0000206E65772028
:103CB0006B70203D2025640D0A00000020000020CC
:103CC0006E6577206B69203D2025640D0A00000099
:103CD000220000206E6577206B64203D2025640D56
:103CE0000A000000140000200F0000200200002045
:103CF0000100002010000020110000201900002009
:103D000012000020180000205265616420504944D0
:103D1000206572720D0A000070202D2D2D2D206B54
:103D200070203D25640D0A0069202D2D2D2D206B5E
:103D300069203D25640D0A0064202D2D2D2D206B5A
:103D400064203D25640D0A0052656164204375724C
:103D500072656E74206572720D0A0000437572728E
:103D6000656E7473203D2564206D410D0A000000CE
:103D700052656164204D6963726F7374657020656C
:103D800072720D0A000000004D6963726F737465F2
:103D900070203D2564202D2D3E25642047656172ED
:103DA0000D0A00005265616420656E61626C6520D9
:103DB0006572720D0A000000456E61626C65203DFF
:103DC0002564200D0A00000021456E61626C6520AB
:103DD0003D2564200D0A000052656164204469722B
:103DE000206572720D0A0000446972203D25642C22
:103DF000204343570D0A00001A0000204469722036
:103E00003D25642C2043570D0A00000046756E6363
:103E100074696F6E20436F646520556E64656669D2
:103E20006E65640D0A00000046756E6374696F6EFE
:103E300020436F6465206572720D0A000000000067
:103E40000404040000080000000800000100030052
:103E500004000600070009000A000C000E000F0015
:103E60001100120014001500170019001A001C00A0
:103E70001D001F002000220024002500270028002C
:103E80002A002B002D002F003000320033003500B7
:103E9000360038003A003B003D003E004000410043
:103EA000430045004600480049004B004C004E00CE
:103EB00050005100530054005600570059005A005A
:103EC0005C005E005F0061006200640065006700E6
:103ED00069006A006C006D006F0070007200730072
:103EE0007500770078007A007B007D007E008000FE
:103EF0008200830085008600880089008B008C008A
:103F00008E00900091009300940096009700990015
:103F10009A009C009E009F00A100A200A400A500A2
:103F2000A700A800AA00AB00AD00AF00B000B2002F
:103F3000B300B500B600B800B900BB00BC00BE00BD
:103F4000C000C100C300C400C600C700C900CA0049
:103F5000CC00CD00CF00D100D200D400D500D700D6
:103F6000D800DA00DB00DD00DE00E000E100E30065
:103F7000E400E600E800E900EB00EC00EE00EF00F2
:103F8000F100F200F400F500F700F800FA00FB0081
:103F9000FD00FE000001010103010401060108010A
:103FA00009010B010C010E010F0111011201140195
:103FB0001501170118011A011B011D011E01200125
:103FC0002101230124012601270129012A012C01B5
:103FD0002D012F0130013201330135013601380145
:103FE00039013B013C013E013F01410142014401D5
:103FF0004501470148014A014B014D014E01500165
:104000005101530154015601570158015A015B01F6
:104010005D015E0160016101630164016601670188
:1040200069016A016C016D016F0170017101730119
:1040300074017601770179017A017C017D017F01AC
:1040400080018201830184018601870189018A013F
:104050008C018D018F0190019201930194019601D1
:10406000970199019A019C019D019E01A001A10166
:10407000A301A401A601A701A801AA01AB01AD01FA
:10408000AE01B001B101B201B401B501B701B8018F
:10409000BA01BB01BC01BE01BF01C101C201C30124
:1040A000C501C601C801C901CA01CC01CD01CF01BA
:1040B000D001D201D301D401D601D701D801DA0150
:1040C000DB01DD01DE01DF01E101E201E401E501E7
:1040D000E601E801E901EB01EC01ED01EF01F0017E
:1040E000F101F301F401F501F701F801FA01FB0117
:1040F000FC01FE01FF0100020202030204020602AB
:10410000070209020A020B020D020E020F0211023F
:104110001202130215021602170219021A021B02DA
:104120001D021E021F022102220223022502260274
:10413000270229022A022B022D022E022F0231020F
:104140003202330234023602370238023A023B02AC
:104150003C023E023F024002420243024402450248
:104160004702480249024B024C024D024E025002E5
:1041700051025202540255025602570259025A0283
:104180005B025C025E025F02600261026302640223
:1041900065026702680269026A026C026D026E02C1
:1041A0006F02710272027302740275027702780262
:1041B00079027A027C027D027E027F028102820203
:1041C0008302840285028702880289028A028C02A5
:1041D0008D028E028F029002920293029402950247
:1041E0009602980299029A029B029C029E029F02EA
:1041F000A002A102A202A302A502A602A702A8028F
:10420000A902AB02AC02AD02AE02AF02B002B20232
:10421000B302B402B502B602B702B802BA02BB02D8
:10422000BC02BD02BE02BF02C002C202C302C4027F
:10423000C502C602C702C802CA02CB02CC02CD0226
:10424000CE02CF02D002D102D202D402D502D602CF
:10425000D702D802D902DA02DB02DC02DE02DF0278
:10426000E002E102E202E302E402E502E602E70222
:10427000E802E902EB02EC02ED02EE02EF02F002CC
:10428000F102F202F302F402F502F602F702F8027A
:10429000F902FA02FB02FD02FE02FF020003010323
:1042A00002030303040305030603070308030903CA
:1042B0000A030B030C030D030E030F03100311037A
:1042C000120313031403150316031703180319032A
:1042D0001A031B031C031D031E031F0320032103DA
:1042E000220323032403250326032703280329038A
:1042F0002A032B032C032D032D032E032F0330033E
:1043000031033203330334033503360337033803F1
:1043100039033A033B033C033C033D033E033F03A5
:104320004003410342034303440345034603470359
:104330004703480349034A034B034C034D034E0311
:104340004F034F03500351035203530354035503C8
:10435000560356035703580359035A035B035C0380
:104360005C035D035E035F0360036103610362033B
:1043700063036403650366036603670368036903F5
:104380006A036B036B036C036D036E036F036F03B0
:10439000700371037203730373037403750376036D
:1043A00077037703780379037A037A037B037C032B
:1043B0007D037E037E037F038003810381038203E9
:1043C00083038403840385038603870387038803A9
:1043D00089038A038A038B038C038C038D038E036A
:1043E0008F038F039003910391039203930394032C
:1043F00094039503960396039703980398039903F0
:104400009A039A039B039C039D039D039E039F03B2
:104410009F03A003A103A103A203A203A303A40378
:10442000A403A503A603A603A703A803A803A9033F
:10443000AA03AA03AB03AB03AC03AD03AD03AE0306
:10444000AF03AF03B003B003B103B203B203B303CE
:10445000B303B403B503B503B603B603B703B70399
:10446000B803B903B903BA03BA03BB03BB03BC0364
:10447000BD03BD03BE03BE03BF03BF03C003C00330
:10448000C103C203C203C303C303C403C403C503FC
:10449000C503C603C603C703C703C803C803C903CC
:1044A000C903CA03CA03CB03CB03CC03CC03CD039C
:1044B000CD03CE03CE03CF03CF03D003D003D1036C
:1044C000D103D203D203D203D303D303D403D4033F
:1044D000D503D503D603D603D703D703D703D80311
:1044E000D803D903D903DA03DA03DA03DB03DB03E6
:1044F000DC03DC03DC03DD03DD03DE03DE03DE03BC
:10450000DF03DF03E003E003E003E103E103E20391
:10451000E203E203E303E303E303E403E403E50369
:10452000E503E503E603E603E603E703E703E70342
:10453000E803E803E803E903E903E903EA03EA031C
:10454000EA03EB03EB03EB03EC03EC03EC03EC03F8
:10455000ED03ED03ED03EE03EE03EE03EE03EF03D5
:10456000EF03EF03F003F003F003F003F103F103B3
:10457000F103F103F203F203F203F203F303F30393
:10458000F303F303F403F403F403F403F503F50373
:10459000F503F503F603F603F603F603F603F70354
:1045A000F703F703F703F703F803F803F803F80337
:1045B000F803F903F903F903F903F903F903FA031B
:1045C000FA03FA03FA03FA03FA03FB03FB03FB0300
:1045D000FB03FB03FB03FB03FC03FC03FC03FC03E7
:1045E000FC03FC03FC03FC03FD03FD03FD03FD03CF
:1045F000FD03FD03FD03FD03FD03FE03FE03FE03B8
:10460000FE03FE03FE03FE03FE03FE03FE03FE03A2
:10461000FE03FF03FF03FF03FF03FF03FF03FF038B
:10462000FF03FF03FF03FF03FF03FF03FF03FF037A
:10463000FF03FF03FF03FF03FF03FF03FF03FF036A
:10464000FF03FF03FF03FF03FF030004FF03FF0358
:10465000FF03FF03FF03FF03FF03FF03FF03FF034A
:10466000FF03FF03FF03FF03FF03FF03FF03FF033A
:10467000FF03FF03FF03FF03FF03FF03FF03FF032A
:10468000FF03FF03FE03FE03FE03FE03FE03FE0320
:10469000FE03FE03FE03FE03FE03FE03FD03FD0314
:1046A000FD03FD03FD03FD03FD03FD03FD03FC030B
:1046B000FC03FC03FC03FC03FC03FC03FC03FB0303
:1046C000FB03FB03FB03FB03FB03FB03FA03FA03FC
:1046D000FA03FA03FA03FA03F903F903F903F903F6
:1046E000F903F903F803F803F803F803F803F703F1
:1046F000F703F703F703F703F603F603F603F603EE
:10470000F603F503F503F503F503F403F403F403EB
:10471000F403F303F303F303F303F203F203F203EB
:10472000F203F103F103F103F103F003F003F003EB
:10473000F003EF03EF03EF03EE03EE03EE03EE03EC
:10474000ED03ED03ED03EC03EC03EC03EC03EB03EF
:10475000EB03EB03EA03EA03EA03E903E903E903F2
:10476000E803E803E803E703E703E703E603E603F8
:10477000E603E503E503E503E403E403E303E303FE
:10478000E303E203E203E203E103E103E003E00306
:10479000E003DF03DF03DE03DE03DE03DD03DD030F
:1047A000DC03DC03DC03DB03DB03DA03DA03DA0319
:1047B000D903D903D803D803D703D703D703D60324
:1047C000D603D503D503D403D403D303D303D20331
:1047D000D203D203D103D103D003D003CF03CF033D
:1047E000CE03CE03CD03CD03CC03CC03CB03CB034D
:1047F000CA03CA03C903C903C803C803C703C7035D
:10480000C603C603C503C503C403C403C303C3036C
:10481000C203C203C103C003C003BF03BF03BE037F
:10482000BE03BD03BD03BC03BB03BB03BA03BA0392
:10483000B903B903B803B703B703B603B603B503A7
:10484000B503B403B303B303B203B203B103B003BC
:10485000B003AF03AF03AE03AD03AD03AC03AB03D3
:10486000AB03AA03AA03A903A803A803A703A603EB
:10487000A603A503A403A403A303A203A203A10305
:10488000A103A0039F039F039E039D039D039C031D
:104890009B039A039A03990398039803970396033B
:1048A0009603950394039403930392039103910356
:1048B00090038F038F038E038D038C038C038B0374
:1048C0008A038A0389038803870387038603850392
:1048D00084038403830382038103810380037F03B2
:1048E0007E037E037D037C037B037A037A037903D3
:1048F00078037703770376037503740373037303F5
:104900007203710370036F036F036E036D036C0317
:104910006B036B036A03690368036703660366033B
:1049200065036403630362036103610360035F0360
:104930005E035D035C035C035B035A035903580386
:1049400057035603560355035403530352035103AD
:1049500050034F034F034E034D034C034B034A03D5
:1049600049034803470347034603450344034303FE
:104970004203410340033F033E033D033C033C032A
:104980003B033A0339033803370336033503340353
:1049900033033203310330032F032E032D032D0382
:1049A0002C032B032A0329032803270326032503AB
:1049B000240323032203210320031F031E031D03DB
:1049C0001C031B031A03190318031703160315030B
:1049D000140313031203110310030F030E030D033B
:1049E0000C030B030A03090308030703060305036B
:1049F00004030303020301030003FF02FE02FD029E
:104A0000FB02FA02F902F802F702F602F502F402DA
:104A1000F302F202F102F002EF02EE02ED02EC020A
:104A2000EB02E902E802E702E602E502E402E30241
:104A3000E202E102E002DF02DE02DC02DB02DA0275
:104A4000D902D802D702D602D502D402D202D102AC
:104A5000D002CF02CE02CD02CC02CB02CA02C802E3
:104A6000C702C602C502C402C302C202C002BF021C
:104A7000BE02BD02BC02BB02BA02B802B702B60255
:104A8000B502B402B302B202B002AF02AE02AD028E
:104A9000AC02AB02A902A802A702A602A502A302C9
:104AA000A202A102A0029F029E029C029B029A0205
:104AB0009902980296029502940293029202900241
:104AC0008F028E028D028C028A028902880287027E
:104AD000850284028302820281027F027E027D02BD
:104AE0007C027A02790278027702750274027302FC
:104AF000720271026F026E026D026C026A0269023A
:104B000068026702650264026302610260025F027A
:104B10005E025C025B025A025902570256025502BB
:104B200054025202510250024E024D024C024B02FC
:104B3000490248024702450244024302420240023F
:104B40003F023E023C023B023A0238023702360282
:104B500034023302320231022F022E022D022B02C6
:104B60002A0229022702260225022302220221020A
:104B70001F021E021D021B021A0219021702160250
:104B800015021302120211020F020E020D020B0295
:104B90000A020902070206020402030202020002DC
:104BA000FF01FE01FC01FB01FA01F801F701F5012B
:104BB000F401F301F101F001EF01ED01EC01EB0172
:104BC000E901E801E601E501E401E201E101DF01BB
:104BD000DE01DD01DB01DA01D801D701D601D40104
:104BE000D301D201D001CF01CD01CC01CA01C9014D
:104BF000C801C601C501C301C201C101BF01BE0197
:104C0000BC01BB01BA01B801B701B501B401B201E1
:104C1000B101B001AE01AD01AB01AA01A801A7012C
:104C2000A601A401A301A101A0019E019D019C0177
:104C30009A019901970196019401930192019001C3
:104C40008F018D018C018A01890187018601840110
:104C50008301820180017F017D017C017A0179015C
:104C60007701760174017301710170016F016D01AB
:104C70006C016A01690167016601640163016101F8
:104C800060015E015D015B015A0158015701560147
:104C900054015301510150014E014D014B014A0194
:104CA0004801470145014401420141013F013E01E4
:104CB0003C013B0139013801360135013301320134
:104CC00030012F012D012C012A0129012701260184
:104CD00024012301210120011E011D011B011A01D4
:104CE0001801170115011401120111010F010E0124
:104CF0000C010B0109010801060104010301010176
:104D00000001FE00FD00FB00FA00F800F700F500CE
:104D1000F400F200F100EF00EE00EC00EB00E9001F
:104D2000E800E600E400E300E100E000DE00DD0072
:104D3000DB00DA00D800D700D500D400D200D100C3
:104D4000CF00CD00CC00CA00C900C700C600C40017
:104D5000C300C100C000BE00BC00BB00B900B80069
:104D6000B600B500B300B200B000AF00AD00AB00BC
:104D7000AA00A800A700A500A400A200A1009F000F
:104D80009E009C009A009900970096009400930062
:104D9000910090008E008C008B00890088008600B6
:104DA00085008300820080007E007D007B007A0009
:104DB0007800770075007300720070006F006D005E
:104DC0006C006A00690067006500640062006100B1
:104DD0005F005E005C005A00590057005600540006
:104DE0005300510050004E004C004B004900480059
:104DF000460045004300410040003E003D003B00AE
:104E00003A003800360035003300320030002F0001
:104E10002D002B002A002800270025002400220056
:104E200020001F001D001C001A00190017001500AB
:104E30001400120011000F000E000C000A000900FF
:104E4000070006000400030001000000FFFFFDFF53
:104E5000FCFFFAFFF9FFF7FFF6FFF4FFF2FFF1FFA7
:104E6000EFFFEEFFECFFEBFFE9FFE7FFE6FFE4FFFC
:104E7000E3FFE1FFE0FFDEFFDCFFDBFFD9FFD8FF50
:104E8000D6FFD5FFD3FFD1FFD0FFCEFFCDFFCBFFA5
:104E9000CAFFC8FFC6FFC5FFC3FFC2FFC0FFBFFFF9
:104EA000BDFFBBFFBAFFB8FFB7FFB5FFB4FFB2FF4E
:104EB000B0FFAFFFADFFACFFAAFFA9FFA7FFA6FFA2
:104EC000A4FFA2FFA1FF9FFF9EFF9CFF9BFF99FFF6
:104ED00097FF96FF94FF93FF91FF90FF8EFF8DFF4A
:104EE0008BFF89FF88FF86FF85FF83FF82FF80FF9E
:104EF0007EFF7DFF7BFF7AFF78FF77FF75FF74FFF2
:104F000072FF70FF6FFF6DFF6CFF6AFF69FF67FF45
:104F100066FF64FF62FF61FF5FFF5EFF5CFF5BFF98
:104F200059FF58FF56FF55FF53FF51FF50FF4EFFEB
:104F30004DFF4BFF4AFF48FF47FF45FF44FF42FF3D
:104F400040FF3FFF3DFF3CFF3AFF39FF37FF36FF91
:104F500034FF33FF31FF2FFF2EFF2CFF2BFF29FFE4
:104F600028FF26FF25FF23FF22FF20FF1FFF1DFF35
:104F70001CFF1AFF18FF17FF15FF14FF12FF11FF88
:104F80000FFF0EFF0CFF0BFF09FF08FF06FF05FFD9
:104F900003FF02FF00FFFFFEFDFEFCFEFAFEF8FE2F
:104FA000F7FEF5FEF4FEF2FEF1FEEFFEEEFEECFE85
:104FB000EBFEE9FEE8FEE6FEE5FEE3FEE2FEE0FED5
:104FC000DFFEDDFEDCFEDAFED9FED7FED6FED4FE25
:104FD000D3FED1FED0FECEFECDFECBFECAFEC8FE75
:104FE000C7FEC5FEC4FEC2FEC1FEBFFEBEFEBCFEC5
:104FF000BBFEB9FEB8FEB6FEB5FEB3FEB2FEB0FE15
:10500000AFFEADFEACFEAAFEA9FEA8FEA6FEA5FE62
:10501000A3FEA2FEA0FE9FFE9DFE9CFE9AFE99FEB0
:1050200097FE96FE94FE93FE91FE90FE8FFE8DFEFF
:105030008CFE8AFE89FE87FE86FE84FE83FE81FE4C
:1050400080FE7EFE7DFE7CFE7AFE79FE77FE76FE99
:1050500074FE73FE71FE70FE6EFE6DFE6CFE6AFEE7
:1050600069FE67FE66FE64FE63FE62FE60FE5FFE32
:105070005DFE5CFE5AFE59FE58FE56FE55FE53FE7E
:1050800052FE50FE4FFE4EFE4CFE4BFE49FE48FEC9
:1050900046FE45FE44FE42FE41FE3FFE3EFE3DFE14
:1050A0003BFE3AFE38FE37FE36FE34FE33FE31FE5E
:1050B00030FE2EFE2DFE2CFE2AFE29FE28FE26FEA8
:1050C00025FE23FE22FE21FE1FFE1EFE1CFE1BFEF1
:1050D0001AFE18FE17FE15FE14FE13FE11FE10FE3A
:1050E0000FFE0DFE0CFE0BFE09FE08FE06FE05FE81
:1050F00004FE02FE01FE00FEFEFDFDFDFCFDFAFDCC
:10510000F9FDF7FDF6FDF5FDF3FDF2FDF1FDEFFD17
:10511000EEFDEDFDEBFDEAFDE9FDE7FDE6FDE5FD5C
:10512000E3FDE2FDE1FDDFFDDEFDDDFDDBFDDAFDA2
:10513000D9FDD7FDD6FDD5FDD3FDD2FDD1FDCFFDE7
:10514000CEFDCDFDCCFDCAFDC9FDC8FDC6FDC5FD2A
:10515000C4FDC2FDC1FDC0FDBEFDBDFDBCFDBBFD6E
:10516000B9FDB8FDB7FDB5FDB4FDB3FDB2FDB0FDB1
:10517000AFFDAEFDACFDABFDAAFDA9FDA7FDA6FDF3
:10518000A5FDA4FDA2FDA1FDA0FD9FFD9DFD9CFD33
:105190009BFD99FD98FD97FD96FD94FD93FD92FD75
:1051A00091FD8FFD8EFD8DFD8CFD8BFD89FD88FDB4
:1051B00087FD86FD84FD83FD82FD81FD7FFD7EFDF3
:1051C0007DFD7CFD7BFD79FD78FD77FD76FD74FD31
:1051D00073FD72FD71FD70FD6EFD6DFD6CFD6BFD6F
:1051E0006AFD68FD67FD66FD65FD64FD62FD61FDAC
:1051F00060FD5FFD5EFD5DFD5BFD5AFD59FD58FDE7
:1052000057FD55FD54FD53FD52FD51FD50FD4EFD22
:105210004DFD4CFD4BFD4AFD49FD48FD46FD45FD5C
:1052200044FD43FD42FD41FD40FD3EFD3DFD3CFD95
:105230003BFD3AFD39FD38FD36FD35FD34FD33FDCE
:1052400032FD31FD30FD2FFD2EFD2CFD2BFD2AFD05
:1052500029FD28FD27FD26FD25FD24FD22FD21FD3C
:1052600020FD1FFD1EFD1DFD1CFD1BFD1AFD19FD72
:1052700018FD17FD15FD14FD13FD12FD11FD10FDA8
:105280000FFD0EFD0DFD0CFD0BFD0AFD09FD08FDDA
:1052900007FD06FD05FD03FD02FD01FD00FDFFFC10
:1052A000FEFCFDFCFCFCFBFCFAFCF9FCF8FCF7FC4A
:1052B000F6FCF5FCF4FCF3FCF2FCF1FCF0FCEFFC7A
:1052C000EEFCEDFCECFCEBFCEAFCE9FCE8FCE7FCAA
:1052D000E6FCE5FCE4FCE3FCE2FCE1FCE0FCDFFCDA
:1052E000DEFCDDFCDCFCDBFCDAFCD9FCD8FCD7FC0A
:1052F000D6FCD5FCD4FCD3FCD3FCD2FCD1FCD0FC36
:10530000CFFCCEFCCDFCCCFCCBFCCAFCC9FCC8FC61
:10531000C7FCC6FCC5FCC4FCC4FCC3FCC2FCC1FC8D
:10532000C0FCBFFCBEFCBDFCBCFCBBFCBAFCB9FCB9
:10533000B9FCB8FCB7FCB6FCB5FCB4FCB3FCB2FCE1
:10534000B1FCB1FCB0FCAFFCAEFCADFCACFCABFC0A
:10535000AAFCAAFCA9FCA8FCA7FCA6FCA5FCA4FC32
:10536000A4FCA3FCA2FCA1FCA0FC9FFC9FFC9EFC57
:105370009DFC9CFC9BFC9AFC9AFC99FC98FC97FC7D
:1053800096FC95FC95FC94FC93FC92FC91FC91FCA2
:1053900090FC8FFC8EFC8DFC8DFC8CFC8BFC8AFCC5
:1053A00089FC89FC88FC87FC86FC86FC85FC84FCE7
:1053B00083FC82FC82FC81FC80FC7FFC7FFC7EFC09
:1053C0007DFC7CFC7CFC7BFC7AFC79FC79FC78FC29
:1053D00077FC76FC76FC75FC74FC74FC73FC72FC48
:1053E00071FC71FC70FC6FFC6FFC6EFC6DFC6CFC66
:1053F0006CFC6BFC6AFC6AFC69FC68FC68FC67FC82
:1054000066FC66FC65FC64FC63FC63FC62FC61FC9E
:1054100061FC60FC5FFC5FFC5EFC5EFC5DFC5CFCB8
:105420005CFC5BFC5AFC5AFC59FC58FC58FC57FCD1
:1054300056FC56FC55FC55FC54FC53FC53FC52FCEA
:1054400051FC51FC50FC50FC4FFC4EFC4EFC4DFC02
:105450004DFC4CFC4BFC4BFC4AFC4AFC49FC49FC17
:1054600048FC47FC47FC46FC46FC45FC45FC44FC2C
:1054700043FC43FC42FC42FC41FC41FC40FC40FC40
:105480003FFC3EFC3EFC3DFC3DFC3CFC3CFC3BFC54
:105490003BFC3AFC3AFC39FC39FC38FC38FC37FC64
:1054A00037FC36FC36FC35FC35FC34FC34FC33FC74
:1054B00033FC32FC32FC31FC31FC30FC30FC2FFC84
:1054C0002FFC2EFC2EFC2EFC2DFC2DFC2CFC2CFC91
:1054D0002BFC2BFC2AFC2AFC29FC29FC29FC28FC9F
:1054E00028FC27FC27FC26FC26FC26FC25FC25FCAA
:1054F00024FC24FC24FC23FC23FC22FC22FC22FCB4
:1055000021FC21FC20FC20FC20FC1FFC1FFC1EFCBD
:105510001EFC1EFC1DFC1DFC1DFC1CFC1CFC1BFCC5
:105520001BFC1BFC1AFC1AFC1AFC19FC19FC19FCCC
:1055300018FC18FC18FC17FC17FC17FC16FC16FCD2
:1055400016FC15FC15FC15FC14FC14FC14FC14FCD6
:1055500013FC13FC13FC12FC12FC12FC12FC11FCD9
:1055600011FC11FC10FC10FC10FC10FC0FFC0FFCDB
:105570000FFC0FFC0EFC0EFC0EFC0EFC0DFC0DFCDB
:105580000DFC0DFC0CFC0CFC0CFC0CFC0BFC0BFCDB
:105590000BFC0BFC0AFC0AFC0AFC0AFC0AFC09FCDA
:1055A00009FC09FC09FC09FC08FC08FC08FC08FCD7
:1055B00008FC07FC07FC07FC07FC07FC07FC06FCD3
:1055C00006FC06FC06FC06FC06FC05FC05FC05FCCE
:1055D00005FC05FC05FC05FC04FC04FC04FC04FCC7
:1055E00004FC04FC04FC04FC03FC03FC03FC03FCBF
:1055F00003FC03FC03FC03FC03FC02FC02FC02FCB6
:1056000002FC02FC02FC02FC02FC02FC02FC02FCAA
:1056100002FC01FC01FC01FC01FC01FC01FC01FCA1
:1056200001FC01FC01FC01FC01FC01FC01FC01FC92
:1056300001FC01FC01FC01FC01FC01FC01FC01FC82
:1056400001FC01FC01FC01FC01FC00FC01FC01FC73
:1056500001FC01FC01FC01FC01FC01FC01FC01FC62
:1056600001FC01FC01FC01FC01FC01FC01FC01FC52
:1056700001FC01FC01FC01FC01FC01FC01FC01FC42
:1056800001FC01FC02FC02FC02FC02FC02FC02FC2C
:1056900002FC02FC02FC02FC02FC02FC03FC03FC18
:1056A00003FC03FC03FC03FC03FC03FC03FC04FC01
:1056B00004FC04FC04FC04FC04FC04FC04FC05FCE9
:1056C00005FC05FC05FC05FC05FC05FC06FC06FCD0
:1056D00006FC06FC06FC06FC07FC07FC07FC07FCB6
:1056E00007FC07FC08FC08FC08FC08FC08FC09FC9B
:1056F00009FC09FC09FC09FC0AFC0AFC0AFC0AFC7E
:105700000AFC0BFC0BFC0BFC0BFC0CFC0CFC0CFC5F
:105710000CFC0DFC0DFC0DFC0DFC0EFC0EFC0EFC3F
:105720000EFC0FFC0FFC0FFC0FFC10FC10FC10FC1F
:1057300010FC11FC11FC11FC12FC12FC12FC12FCFE
:1057400013FC13FC13FC14FC14FC14FC14FC15FCDB
:1057500015FC15FC16FC16FC16FC17FC17FC17FCB8
:1057600018FC18FC18FC19FC19FC19FC1AFC1AFC92
:105770001AFC1BFC1BFC1BFC1CFC1CFC1DFC1DFC6C
:105780001DFC1EFC1EFC1EFC1FFC1FFC20FC20FC44
:1057900020FC21FC21FC22FC22FC22FC23FC23FC1B
:1057A00024FC24FC24FC25FC25FC26FC26FC26FCF1
:1057B00027FC27FC28FC28FC29FC29FC29FC2AFCC6
:1057C0002AFC2BFC2BFC2CFC2CFC2DFC2DFC2EFC99
:1057D0002EFC2EFC2FFC2FFC30FC30FC31FC31FC6D
:1057E00032FC32FC33FC33FC34FC34FC35FC35FC3D
:1057F00036FC36FC37FC37FC38FC38FC39FC39FC0D
:105800003AFC3AFC3BFC3BFC3CFC3CFC3DFC3DFCDC
:105810003EFC3EFC3FFC40FC40FC41FC41FC42FCA9
:1058200042FC43FC43FC44FC45FC45FC46FC46FC76
:1058300047FC47FC48FC49FC49FC4AFC4AFC4BFC41
:105840004BFC4CFC4DFC4DFC4EFC4EFC4FFC50FC0C
:1058500050FC51FC51FC52FC53FC53FC54FC55FCD5
:1058600055FC56FC56FC57FC58FC58FC59FC5AFC9D
:105870005AFC5BFC5CFC5CFC5DFC5EFC5EFC5FFC63
:105880005FFC60FC61FC61FC62FC63FC63FC64FC2B
:1058900065FC66FC66FC67FC68FC68FC69FC6AFCED
:1058A0006AFC6BFC6CFC6CFC6DFC6EFC6FFC6FFCB2
:1058B00070FC71FC71FC72FC73FC74FC74FC75FC74
:1058C00076FC76FC77FC78FC79FC79FC7AFC7BFC36
:1058D0007CFC7CFC7DFC7EFC7FFC7FFC80FC81FCF6
:1058E00082FC82FC83FC84FC85FC86FC86FC87FCB5
:1058F00088FC89FC89FC8AFC8BFC8CFC8DFC8DFC73
:105900008EFC8FFC90FC91FC91FC92FC93FC94FC2F
:1059100095FC95FC96FC97FC98FC99FC9AFC9AFCEB
:105920009BFC9CFC9DFC9EFC9FFC9FFCA0FCA1FCA6
:10593000A2FCA3FCA4FCA4FCA5FCA6FCA7FCA8FC60
:10594000A9FCAAFCAAFCABFCACFCADFCAEFCAFFC19
:10595000B0FCB1FCB1FCB2FCB3FCB4FCB5FCB6FCD1
:10596000B7FCB8FCB9FCB9FCBAFCBBFCBCFCBDFC88
:10597000BEFCBFFCC0FCC1FCC2FCC3FCC4FCC4FC3C
:10598000C5FCC6FCC7FCC8FCC9FCCAFCCBFCCCFCF3
:10599000CDFCCEFCCFFCD0FCD1FCD2FCD3FCD3FCA4
:1059A000D4FCD5FCD6FCD7FCD8FCD9FCDAFCDBFC5B
:1059B000DCFCDDFCDEFCDFFCE0FCE1FCE2FCE3FC0B
:1059C000E4FCE5FCE6FCE7FCE8FCE9FCEAFCEBFCBB
:1059D000ECFCEDFCEEFCEFFCF0FCF1FCF2FCF3FC6B
:1059E000F4FCF5FCF6FCF7FCF8FCF9FCFAFCFBFC1B
:1059F000FCFCFDFCFEFCFFFC00FD01FD02FD03FDC7
:105A000005FD06FD07FD08FD09FD0AFD0BFD0CFD6A
:105A10000DFD0EFD0FFD10FD11FD12FD13FD14FD1A
:105A200015FD17FD18FD19FD1AFD1BFD1CFD1DFDC3
:105A30001EFD1FFD20FD21FD22FD24FD25FD26FD6F
:105A400027FD28FD29FD2AFD2BFD2CFD2EFD2FFD18
:105A500030FD31FD32FD33FD34FD35FD36FD38FDC1
:105A600039FD3AFD3BFD3CFD3DFD3EFD40FD41FD68
:105A700042FD43FD44FD45FD46FD48FD49FD4AFD0F
:105A80004BFD4CFD4DFD4EFD50FD51FD52FD53FDB6
:105A900054FD55FD57FD58FD59FD5AFD5BFD5DFD5B
:105AA0005EFD5FFD60FD61FD62FD64FD65FD66FDFF
:105AB00067FD68FD6AFD6BFD6CFD6DFD6EFD70FDA3
:105AC00071FD72FD73FD74FD76FD77FD78FD79FD46
:105AD0007BFD7CFD7DFD7EFD7FFD81FD82FD83FDE7
